:020000040000FA
:0400000007EF00F016
:10000800278277ED02F045EF03F0000E1A6E34EC0C
:1000180003F05FEC03F052EC03F083B416EF00F04A
:1000280018EF00F026EF00F02550D8A41EEF00F0DE
:1000380020EF00F028EF00F0010E256E1EEC03F013
:1000480028EF00F0000E256E2350D8B42EEF00F0F4
:1000580030EF00F05BEF00F083B235EF00F037EFE0
:1000680000F056EF00F02150D8A43DEF00F03FEF2C
:1000780000F05BEF00F0010E216E1D501E10D8A499
:1000880048EF00F04AEF00F05BEF00F08A80630E63
:10009800246051EF00F053EF00F05BEF00F0242AEA
:1000A8005BEF00F0000E216E8A905BEF00F01B2AD8
:1000B800030E1B6462EF00F064EF00F0E7EF00F05E
:1000C800000E1B6EE7EF00F024C009F00A6A000E6C
:1000D8000C6E0A0E0B6E1FEC02F009501A6E2CEF14
:1000E80001F0000E046E0A0E036E24C001F0026ACD
:1000F800BDEC01F001C009F002C00AF0000E0C6E60
:100108000A0E0B6E1FEC02F009501A6E2CEF01F06C
:100118002350D8A492EF00F094EF00F09AEF00F08B
:10012800000E126E000E116EB7EF00F0070E1F24BE
:100138000F6E000E2020106ED89010320F32D8901B
:1001480010320F32D89010320F320FC008F010C0A2
:1001580009F0000E0B6E0A0E0A6EECEC02F008C0F5
:1001680011F009C012F011C01AF02CEF01F0235061
:10017800D8A4C1EF00F0C3EF00F0C9EF00F0000E03
:10018800146E000E136EE3EF00F0000E046E500EB6
:10019800036E070E1F24016E000E2020026EB2ECC3
:1001A80002F001C008F002C009F0000E0B6E0A0E42
:1001B8000A6EECEC02F008C013F009C014F013C08A
:1001C8001AF02CEF01F01B500F6E106A1050000A45
:1001D800D8B4F1EF00F02CEF01F00F50000AD8B4BA
:1001E80068EF00F0010AD8B475EF00F0030AD8B43C
:1001F8008CEF00F0010AD8B4BBEF00F02CEF01F04F
:10020800770E1C6E96EF01F0030E1C6E96EF01F050
:100218005D0E1C6E96EF01F01F0E1C6E96EF01F03E
:100228002B0E1C6E96EF01F03E0E1C6E96EF01F041
:100238007E0E1C6E96EF01F0070E1C6E96EF01F015
:100248007F0E1C6E96EF01F03F0E1C6E96EF01F0CC
:100258001A500F6E106A1050000AD8B436EF01F029
:1002680096EF01F00F50000AD8B404EF01F0010A2C
:10027800D8B408EF01F0030AD8B40CEF01F0010A72
:10028800D8B410EF01F0070AD8B414EF01F0010A4E
:10029800D8B418EF01F0030AD8B41CEF01F0010A32
:1002A800D8B420EF01F00F0AD8B424EF01F0010A06
:1002B800D8B428EF01F096EF01F0100E196EB3EFE5
:1002C80001F0200E196EB3EF01F02650D8A46FEF9D
:1002D80001F071EF01F077EF01F0000E166E000EDD
:1002E800156E7BEF01F0000E166E400E156E15C0F0
:1002F80019F01C8EB3EF01F02650D8A486EF01F058
:1003080088EF01F08EEF01F0000E186E000E176EE8
:1003180092EF01F0000E186E800E176E17C019F0DC
:10032800B3EF01F01B500F6E106A1050000AD8B4DA
:10033800A0EF01F0B3EF01F00F50000AD8B461EF5D
:1003480001F0010AD8B465EF01F0030AD8B469EFE7
:1003580001F0010AD8B480EF01F0B3EF01F0FF0E0D
:100368001C1A1CC08BFF19C08CFF11EF00F007EF9F
:1003780000F0000E066E04BEC6EF01F0C4EF01F0F7
:10038800CCEF01F0036C041ED8B0042A010E066EEF
:1003980002BED3EF01F0D1EF01F0D9EF01F0016C0B
:1003A800021ED8B0022A010E061A000E086E000EB0
:1003B800076E03500410D8B4E4EF01F0E6EF01F043
:1003C8000EEF02F0010E056EEEEF01F0D890033645
:1003D8000436052A04AEF3EF01F0F5EF01F0EAEF79
:1003E80001F0D890073608360350015C04500258D3
:1003F800D8A001EF02F003EF02F008EF02F003507B
:10040800015E0450025A0780D89004320332052E48
:10041800F5EF01F00650D8B414EF02F016EF02F031
:100428001AEF02F0076C081ED8B0082A07C001F0BE
:1004380008C002F01200000E0E6E0ABE28EF02F08D
:1004480026EF02F02EEF02F0096C0A1ED8B00A2A35
:10045800010E0E6E0CBE35EF02F033EF02F039EFED
:1004680002F00B6C0C1ED8B00C2A0B500C10D8B430
:1004780040EF02F042EF02F066EF02F0010E0D6E5F
:100488004AEF02F0D8900B360C360D2A0CAE4FEF1F
:1004980002F051EF02F046EF02F00B50095C0C50ED
:1004A8000A58D8A05AEF02F05CEF02F060EF02F0B1
:1004B8000B50095E0C500A5AD8900C320B320D2E94
:1004C80051EF02F00E50D8B46CEF02F06EEF02F06C
:1004D80072EF02F0096C0A1ED8B00A2A09C009F0A6
:1004E8000AC00AF0120006009E921D501E10D8B4D1
:1004F80080EF02F082EF02F087EF02F01D06D8A02D
:100508001E06B0EF02F01F06D8A020061F502010CC
:10051800D8A491EF02F093EF02F0B0EF02F023506D
:10052800D8B499EF02F09BEF02F0A1EF02F0000EB1
:10053800236E010E226EACEF02F02650D8B4A7EF5E
:1005480002F0AAEF02F0010EABEF02F0000E266EE9
:10055800000E206E040E1F6E27921100000E066E0C
:10056800000E056E03500410D8B4BDEF02F0BFEFC3
:1005780002F0E7EF02F0010E076EC7EF02F0D89025
:1005880003360436072A04AECCEF02F0CEEF02F0B1
:10059800C3EF02F0D890053606360350015C0450CC
:1005A8000258D8A0DAEF02F0DCEF02F0E1EF02F037
:1005B8000350015E0450025A0580D8900432033279
:1005C800072ECEEF02F005C001F006C002F01200BF
:1005D8000A500B10D8B4F3EF02F0F5EF02F019EF60
:1005E80003F0010E0C6EFDEF02F0D8900A360B36C0
:1005F8000C2A0BAE02EF03F004EF03F0F9EF02F060
:100608000A50085C0B500958D8A00DEF03F00FEF03
:1006180003F013EF03F00A50085E0B50095AD89004
:100628000B320A320C2E04EF03F008C008F009C0A0
:1006380009F01200010E236E000E226E010E266EC6
:10064800010E216E000E246E000E1E6E420E1D6EEF
:10065800010E206EE00E1F6E000ECC6ECA841200D2
:10066800010E256E000E946E060E956E000E236E1A
:10067800000E226E010E266E000E8C6E8CCF8BFF44
:10068800120000EE1DF0080EEE6AE806FDE1279064
:100698002792000EF86E000109EF00F0D08EF28E5E
:1006A8009F829D829E92D38CD39AD3987A0ECB6EDA
:0E06B8007A0ECA6E12009390000E8A6E120027
:020000040020DA
:08000000FFFFFFFFFFFFFFFF00
:020000040030CA
:0E000000FF081F1EFF8181FF0FC00FE00F40A1
:00000001FF
